{
  "contractName": "Authorization",
  "abi": [
    {
      "inputs": [],
      "payable": false,
      "stateMutability": "nonpayable",
      "type": "constructor"
    },
    {
      "anonymous": false,
      "inputs": [
        {
          "indexed": true,
          "name": "owner",
          "type": "address"
        },
        {
          "indexed": true,
          "name": "signer",
          "type": "address"
        },
        {
          "indexed": false,
          "name": "rights",
          "type": "bool"
        }
      ],
      "name": "change",
      "type": "event"
    },
    {
      "constant": false,
      "inputs": [
        {
          "name": "signer",
          "type": "address"
        }
      ],
      "name": "register",
      "outputs": [],
      "payable": false,
      "stateMutability": "nonpayable",
      "type": "function"
    },
    {
      "constant": true,
      "inputs": [
        {
          "name": "_hash",
          "type": "bytes32"
        },
        {
          "name": "_signature",
          "type": "bytes"
        }
      ],
      "name": "verify",
      "outputs": [
        {
          "name": "",
          "type": "address"
        }
      ],
      "payable": false,
      "stateMutability": "pure",
      "type": "function"
    },
    {
      "constant": true,
      "inputs": [
        {
          "name": "_hash",
          "type": "bytes32"
        },
        {
          "name": "v",
          "type": "uint8"
        },
        {
          "name": "r",
          "type": "bytes32"
        },
        {
          "name": "s",
          "type": "bytes32"
        },
        {
          "name": "owner",
          "type": "address"
        }
      ],
      "name": "checkSig",
      "outputs": [
        {
          "name": "",
          "type": "bool"
        }
      ],
      "payable": false,
      "stateMutability": "view",
      "type": "function"
    },
    {
      "constant": false,
      "inputs": [
        {
          "name": "signer",
          "type": "address"
        }
      ],
      "name": "cancel",
      "outputs": [],
      "payable": false,
      "stateMutability": "nonpayable",
      "type": "function"
    },
    {
      "constant": true,
      "inputs": [
        {
          "name": "signer",
          "type": "address"
        }
      ],
      "name": "getVerified",
      "outputs": [
        {
          "name": "",
          "type": "bool"
        }
      ],
      "payable": false,
      "stateMutability": "view",
      "type": "function"
    }
  ],
  "bytecode": "0x608060405234801561001057600080fd5b50610bec806100206000396000f30060806040526004361061006d576000357c0100000000000000000000000000000000000000000000000000000000900463ffffffff168063116864f014610072578063258ae582146100cd5780634420e486146101845780634c33fe94146101c7578063be4ee9ce1461020a575b600080fd5b34801561007e57600080fd5b506100b3600480360381019080803573ffffffffffffffffffffffffffffffffffffffff16906020019092919050505061029c565b604051808215151515815260200191505060405180910390f35b3480156100d957600080fd5b506101426004803603810190808035600019169060200190929190803590602001908201803590602001908080601f0160208091040260200160405190810160405280939291908181526020018383808284378201915050505050509192919290505050610369565b604051808273ffffffffffffffffffffffffffffffffffffffff1673ffffffffffffffffffffffffffffffffffffffff16815260200191505060405180910390f35b34801561019057600080fd5b506101c5600480360381019080803573ffffffffffffffffffffffffffffffffffffffff16906020019092919050505061043d565b005b3480156101d357600080fd5b50610208600480360381019080803573ffffffffffffffffffffffffffffffffffffffff16906020019092919050505061069c565b005b34801561021657600080fd5b506102826004803603810190808035600019169060200190929190803560ff16906020019092919080356000191690602001909291908035600019169060200190929190803573ffffffffffffffffffffffffffffffffffffffff1690602001909291905050506108fa565b604051808215151515815260200191505060405180910390f35b60003373ffffffffffffffffffffffffffffffffffffffff168273ffffffffffffffffffffffffffffffffffffffff16141515156102d957600080fd5b6000803373ffffffffffffffffffffffffffffffffffffffff1673ffffffffffffffffffffffffffffffffffffffff16815260200190815260200160002060008373ffffffffffffffffffffffffffffffffffffffff1673ffffffffffffffffffffffffffffffffffffffff16815260200190815260200160002060009054906101000a900460ff169050919050565b6000606060006040805190810160405280601c81526020017f19457468657265756d205369676e6564204d6573736167653a0a333200000000815250915081856040518083805190602001908083835b6020831015156103de57805182526020820191506020810190506020830392506103b9565b6001836020036101000a03801982511681845116808217855250505050505090500182600019166000191681526020019250505060405180910390209050610433848260001916610ac890919063ffffffff16565b9250505092915050565b3373ffffffffffffffffffffffffffffffffffffffff168173ffffffffffffffffffffffffffffffffffffffff161415151561047857600080fd5b600115156000803373ffffffffffffffffffffffffffffffffffffffff1673ffffffffffffffffffffffffffffffffffffffff16815260200190815260200160002060008373ffffffffffffffffffffffffffffffffffffffff1673ffffffffffffffffffffffffffffffffffffffff16815260200190815260200160002060009054906101000a900460ff1615151415151561051457600080fd5b60016000803373ffffffffffffffffffffffffffffffffffffffff1673ffffffffffffffffffffffffffffffffffffffff16815260200190815260200160002060008373ffffffffffffffffffffffffffffffffffffffff1673ffffffffffffffffffffffffffffffffffffffff16815260200190815260200160002060006101000a81548160ff0219169083151502179055508073ffffffffffffffffffffffffffffffffffffffff163373ffffffffffffffffffffffffffffffffffffffff167f6c07f0be6fe1517bca9d17493dedca0fd5ce3a3043baacd9e8a99e4926c122016000803373ffffffffffffffffffffffffffffffffffffffff1673ffffffffffffffffffffffffffffffffffffffff16815260200190815260200160002060008573ffffffffffffffffffffffffffffffffffffffff1673ffffffffffffffffffffffffffffffffffffffff16815260200190815260200160002060009054906101000a900460ff16604051808215151515815260200191505060405180910390a350565b3373ffffffffffffffffffffffffffffffffffffffff168173ffffffffffffffffffffffffffffffffffffffff16141515156106d757600080fd5b600115156000803373ffffffffffffffffffffffffffffffffffffffff1673ffffffffffffffffffffffffffffffffffffffff16815260200190815260200160002060008373ffffffffffffffffffffffffffffffffffffffff1673ffffffffffffffffffffffffffffffffffffffff16815260200190815260200160002060009054906101000a900460ff16151514151561077257600080fd5b60008060003373ffffffffffffffffffffffffffffffffffffffff1673ffffffffffffffffffffffffffffffffffffffff16815260200190815260200160002060008373ffffffffffffffffffffffffffffffffffffffff1673ffffffffffffffffffffffffffffffffffffffff16815260200190815260200160002060006101000a81548160ff0219169083151502179055508073ffffffffffffffffffffffffffffffffffffffff163373ffffffffffffffffffffffffffffffffffffffff167f6c07f0be6fe1517bca9d17493dedca0fd5ce3a3043baacd9e8a99e4926c122016000803373ffffffffffffffffffffffffffffffffffffffff1673ffffffffffffffffffffffffffffffffffffffff16815260200190815260200160002060008573ffffffffffffffffffffffffffffffffffffffff1673ffffffffffffffffffffffffffffffffffffffff16815260200190815260200160002060009054906101000a900460ff16604051808215151515815260200191505060405180910390a350565b600060606000806040805190810160405280601c81526020017f19457468657265756d205369676e6564204d6573736167653a0a333200000000815250925082896040518083805190602001908083835b602083101515610970578051825260208201915060208101905060208303925061094b565b6001836020036101000a03801982511681845116808217855250505050505090500182600019166000191681526020019250505060405180910390209150600182898989604051600081526020016040526040518085600019166000191681526020018460ff1660ff1681526020018360001916600019168152602001826000191660001916815260200194505050505060206040516020810390808403906000865af1158015610a25573d6000803e3d6000fd5b5050506020604051035190506000808673ffffffffffffffffffffffffffffffffffffffff1673ffffffffffffffffffffffffffffffffffffffff16815260200190815260200160002060008273ffffffffffffffffffffffffffffffffffffffff1673ffffffffffffffffffffffffffffffffffffffff16815260200190815260200160002060009054906101000a900460ff16935050505095945050505050565b60008060008060418551141515610ae25760009350610bb7565b6020850151925060408501519150606085015160001a9050601b8160ff161015610b0d57601b810190505b601b8160ff1614158015610b255750601c8160ff1614155b15610b335760009350610bb7565b600186828585604051600081526020016040526040518085600019166000191681526020018460ff1660ff1681526020018360001916600019168152602001826000191660001916815260200194505050505060206040516020810390808403906000865af1158015610baa573d6000803e3d6000fd5b5050506020604051035193505b505050929150505600a165627a7a72305820ef48a7f1e71766b42b1fd91076e9e849200de1a705eedeab6b73e979cf3cf2190029",
  "source": "pragma solidity ^0.4.24;\r\n\r\nimport \"openzeppelin-solidity/contracts/math/SafeMath.sol\";\r\nimport \"openzeppelin-solidity/contracts/ECRecovery.sol\";\r\n\r\ncontract Authorization {\r\n    \r\n\r\n    mapping (address => mapping (address => bool)) private verified;  //[owner][signer]\r\n    \r\n    event change(address indexed owner, address indexed signer, bool rights);\r\n\r\n    using ECRecovery for bytes32;\r\n\r\n    constructor() public{\r\n    }\r\n\r\n\r\n    function register(address signer) public {         //register signer\r\n        require (signer != msg.sender);\r\n        require (verified[msg.sender][signer] != true);\r\n        verified[msg.sender][signer] = true;\r\n        emit change(msg.sender, signer, verified[msg.sender][signer]);\r\n        \r\n    }\r\n\r\n\r\n    function verify(bytes32 _hash, bytes _signature) public pure returns (address) {                  // ECDSA.sol for test\r\n         bytes memory prefix = \"\\x19Ethereum Signed Message:\\n32\";\r\n         bytes32 prefixedHash = keccak256(prefix, _hash);\r\n        return  prefixedHash.recover(_signature);\r\n        \r\n    }\r\n\r\n    function checkSig(bytes32 _hash, uint8 v, bytes32 r, bytes32 s, address owner) public view returns (bool) {\r\n        bytes memory prefix = \"\\x19Ethereum Signed Message:\\n32\";\r\n        bytes32 prefixedHash = keccak256(prefix, _hash);\r\n        address signer = ecrecover(prefixedHash, v, r, s);\r\n        return verified[owner][signer];\r\n    }\r\n\r\n    function cancel(address signer) public {\r\n        require (signer != msg.sender);\r\n        require ( verified[msg.sender][signer] == true);\r\n        verified[msg.sender][signer] = false;\r\n        emit change(msg.sender, signer, verified[msg.sender][signer]);\r\n    }\r\n\r\n    function getVerified (address signer) public view returns (bool) {\r\n        require (signer != msg.sender);\r\n        return verified[msg.sender][signer];\r\n    }\r\n\r\n\r\n\r\n\r\n    \r\n}\r\n\r\n",
  "sourcePath": "C:\\Users\\Angelo\\Desktop\\checkSig\\checkSigTruffle\\contracts\\Authorization.sol",
  "compiler": {
    "name": "solc",
    "version": "0.4.24+commit.e67f0147.Emscripten.clang"
  },
  "schemaVersion": "2.0.1",
  "updatedAt": "2018-09-05T02:35:36.860Z"
}